:020000040800F2
:1000000000500020C9AD00080FAE000811AE000876
:1000100013AE000815AE000817AE0008000000007F
:1000200000000000000000000000000019AE000801
:100030001BAE0008000000001DAE000801510008C2
:1000400023AE000825AE000827AE000829AE000840
:100050002BAE00082DAE00082FAE000831AE000810
:1000600033AE000835AE000837AE000839AE0008E0
:10007000DD6100083DAE00083FAE000841AE00085B
:1000800043AE000845AE000847AE000849AE000880
:100090004BAE00084DAE00084FAE000851AE000850
:1000A00053AE000855AE000857AE000859AE000820
:1000B000AD5500085DAE00085FAE000861AE0008F7
:1000C00063AE000865AE000867AE000869AE0008C0
:1000D0006BAE0008DD54000851A50008014C000873
:1000E00073AE000875AE000877AE000810B5054C79
:1000F000237833B9044B13B10448AFF300800123D4
:10010000237010BD3001002000000000DCD8000882
:10011000084B10B51BB108490848AFF300800848E8
:10012000036803B910BD074B002BFBD0BDE810409E
:10013000184700BF0000000034010020DCD8000890
:100140003001002000000000154B002B08BF134BAE
:100150009D46A3F5803A00218B460F461348144A6A
:10016000121A0AF07BFF0F4B002B00D098470E4B62
:10017000002B00D098470020002104000D000D48FE
:10018000002802D00C48AFF300800AF039FF2000AD
:10019000290000F013F80AF077FE00BF0000080005
:1001A000005000200000000000000000300100208E
:1001B0009C32002000000000000000002DE9804873
:1001C000914CB3B008F09EFB6368904A03F00C03B7
:1001D000042B01D0082B01D08D4B0EE063686168C1
:1001E000C3F38343CD0303F1020302D5616888039F
:1001F00001D5884900E086494B431360636886490E
:10020000C3F30313C95C1368844DCB401360A36927
:10021000834A43F00103A3615368516823F070637C
:1002200043F0007321F0706151604FF0000953609A
:100230007C4905F12C00A5F806900BF08AF97A4963
:1002400005F16C000BF085F908F05EFD774805F0CC
:10025000A3F9774805F0A0F9764805F09DF97448B0
:1002600005F09AF9744805F097F9714805F094F98A
:100270004FF0020805F088F904238DF84E808DF8C0
:100280004F30A36932AE43F008036C4FA3610823DB
:1002900026F87C3D3146384608F070FC684805F089
:1002A0007BF9634805F078F905F06EF98DF84E801A
:1002B000A369314643F00803A3614FF2180338469F
:1002C0007B614FF0100BADF84C308DF84FB008F05B
:1002D00055FC5C4805F060F9554805F05DF95A4851
:1002E00005F05AF9524805F057F905F04DF9052087
:1002F00004F0DCFC554805F04FF94D4805F04CF989
:1003000005F042F98DF84E80A36907F5806743EA4E
:100310000B03A36131464FF4005A3846ADF84CA0A8
:100320008DF84FB008F02AFC4948C7F810A005F036
:1003300033F93F4805F030F905F026F98DF84E8085
:10034000A369314643F00403A3614FF40063ADF8A1
:100350004C30404848238DF84F3008F00FFC04F033
:10036000D9FE08B9079081E0CDF81C9004F0D2FEC8
:1003700000287BD0079B64200133079304F0C4FC62
:10038000079B092BF2D14FF400537B6108F0BCFCB2
:1003900009F088FE304B1B68B3F5E13F01D008F04F
:1003A0003BFC2C4C1025012765613220676104F06D
:1003B000ABFC27614FF4FA7004F0A6FC2561274DD1
:1003C000274F2C463B6833B1304609F0ABFE10B1E5
:1003D000139808F05BFE2B68002BF3D0214B2248CA
:1003E00019684A1CB2F5807F405C1A6004BF002285
:1003F0001A60C0B272B62368013B236062B61390E4
:100400000AF0FCF8DEE700BF001002400800002000
:1004100000127A0000093D00280000202C25002051
:100420000000014057BD000869BD000870BD00080C
:10043000B8C100088FBD0008ACBD0008000C014029
:10044000B9BD0008C7BD0008DBBD0008E9BD000854
:100450000DBE000800080140081A0020F405002025
:10046000F0050020EC050020500600205A4805F059
:1004700093F85A4805F090F805F086F80023ADF897
:100480005230ADF84E308DF85430E3694FF080476C
:1004900043F00103E3613B88012223F45C731B04F6
:1004A0001B0C3B800523BB8540F21F333B85BA8282
:1004B000BB8912A89BB21343BB811C238DF8483023
:1004C0000F238DF84B208DF849308DF84A3008F015
:1004D00099F83B8842489BB243F001033B8005F00A
:1004E0005BF83E4805F058F805F04EF802238DF809
:1004F0004E30A369314643F00403A3614FF48053A7
:10050000ADF84C30374848238DF84F3008F036FBB3
:10051000354805F041F805F037F8344805F03CF867
:100520002E4805F039F8324805F036F82B4805F02A
:1005300033F805F029F82F4805F02EF8274805F084
:100540002BF805F021F82C4805F026F8234805F093
:1005500023F805F019F8294806F050FA27480AF060
:10056000DFF8274B1A6898460AB1264800E026486B
:10057000264F05F011F8194805F00EF83B680BB14D
:10058000234800E0234805F007F8144805F004F874
:10059000D8F8003013B13B68002B4BD11E4804F053
:1005A000FBFF0E4804F0F8FF4CF2503006F026FA3C
:1005B0004CF250300AF0B4F8D8F800300BB11748BC
:1005C00000E0174804F0E8FF044804F0E5FF3B684A
:1005D00053B3144829E000BFFBBD0008B8C10008B0
:1005E0000ABE0008000801401CBE000826BE000824
:1005F00030BE000844BE000853BE0008A0860100BB
:10060000A000002064BE000872BE0008D8110020BF
:1006100081BE000892BE0008A4BE0008C8BE000843
:10062000DABE0008EEBE0008CB4804F0B5FFCB48A8
:1006300004F0B2FF07F008FAC94BCA4800271F6050
:1006400004F0AAFFC54804F0A7FF04F09DFFC64BC5
:100650001B68012B01D006F073FA09F015F803F0BE
:1006600017FF20230EA94FF4A2708DF83C708DF86F
:100670003D708DF83E708DF838308DF839708DF8FA
:100680003A7040F2691A08F0BBFB03F051FF4FF0DB
:1006900012090127384601220EA903F04DFF143735
:1006A000484601220EA903F047FF574509F11209F8
:1006B000F0D1AE4F0AF0C4F80EA940F2451008F090
:1006C0009FFB03F035FFD7F80090B9F1000F4AD136
:1006D00002228DF84A208DF85090636812A923F405
:1006E000404343F400436360A369A14843F011030E
:1006F000A361ADF848208DF84B9008F03FFAA3694C
:1007000043F40073A3619B4B8DF850905A6822F418
:10071000702222F480725A609968974A0A4042F423
:1007200060229A60DA6A22F47002DA621A6922F0B0
:1007300038021A615A6B22F01F0242F001025A631A
:100740009A6842F001029A609A6842F008029A6040
:100750009968884A0907FBD4936843F004039360BF
:1007600093685B07FCD40EA94FF4A3704FF0010906
:10077000C7F800904FF0020B08F042FB03F0D8FEE0
:1007800004238DF84EB08DF84F30A3697B4F43F0B2
:100790000803A36131464FF480733846ADF84C30FE
:1007A00008F0ECF98DF84EB0A369314643F0080328
:1007B000A361384610234FF400748DF84F30ADF824
:1007C0004C4008F0DBF90EA940F247103C6108F0FC
:1007D00017FB03F0ADFE0EA94FF4A47008F010FB58
:1007E00003F0A6FE05F052FF0EA940F2491008F0F2
:1007F00007FB03F09DFE624BDFF8A0A11A68B2F57B
:10080000165F70D04FF4165B0024C3F800B00C23C1
:10081000ADF856300493CDF84CB0ADF85040ADF87B
:100820005240ADF85440ADF85840DAF81820384638
:1008300042F00802CAF81820DAF8182011A942F08C
:100840000802CAF81820DAF81C2042F48022CAF8FC
:100850001C204FF48062ADF844204FF0030A1822A8
:100860008DF847208DF846A008F088F94FF4006213
:100870003846ADF84420A7F54447482211A98DF821
:1008800047208DF846A008F079F9BA8938466FEA12
:1008900042426FEA524292B2BA81049B3146ADF8AD
:1008A0005630CDF84CB0ADF85040ADF85240ADF8F0
:1008B0005440ADF8584008F003F9BB89314A9BB267
:1008C00043F40053BB81136812A843F02003136064
:1008D00027238DF848308DF849408DF84A408DF82F
:1008E0004B9007F08FFE284804F056FE00210C20A4
:1008F00004F032F90EA94FF4A57008F081FA03F064
:1009000017FE224B01221A60214B1968002959D188
:100910001A6008F0F9F91F4804F03EFE09F0C2FB26
:100920001D4B1B68B3F5E13F01D008F075F9104C81
:100930000127DFF86C906761322004F0E5F9276148
:100940004F460023DFF85CA0C9F800303224DAF803
:1009500000306BBB28E000BF03BF0008B8C100082F
:10096000082A002019BF0008740000206C0700202E
:100970000008014000240140FDF7F1FF000C014098
:100980004C0600200C48004025BF00083C08002011
:100990008401002037BF0008081A00200010024020
:1009A00080010020F00500203B68002BCFD005E03F
:1009B000304609F0B7FB0028F6D0C2E70023013C1F
:1009C0003B60C4D10EA940F24B1008F019FA03F0B5
:1009D000AFFD8F4B1B6843B10EA94FF4A67008F012
:1009E0000FFA03F0A5FD05F0F7FED8F8003043B18B
:1009F0000EA940F24D1008F003FA03F099FD05F03E
:100A0000E1FFD8F8003013B307F038FFF8B1EA6916
:100A1000AB696869296A2C69EE68AF6802F26C728A
:100A20000133C5F8B020C5F8B430C5F8B800C5F832
:100A3000AC10C5F8BC40C5F8C060C5F8C4708DE8FE
:100A4000D100744850F82110734805F02FFB734C07
:100A500004F022FD254601230593FF230493089308
:100A60006F4E00230B9306936E4B1F686E4B1F60F7
:100A7000069B002B3AD0079BFB1A052B1CD904F0D0
:100A800049FBC8B1694804F087FD694804F084FD5A
:100A9000684B4FF00008C3F8048083F83C80664A36
:100AA000664B674913A80AF009FD0122414613A8C5
:100AB00008F04EFD079719E00B9BFB1A052B15D983
:100AC000604B996811F4805810D15F4804F064FDC0
:100AD000574804F061FD574B012241465B48C3F87B
:100AE000048083F83C8008F033FD0B9701F078FB1D
:100AF000A36A002B48D0636B002B45D1A369002B60
:100B000042D0534FB81C04F0B3FC00283CD07B8883
:100B1000B7F804E0F888734538BFA7F802E07B888F
:100B2000834284BF4A4B5880864514D27A88CEEBE4
:100B30000003CEEB0202520192FBF3F33A781F2B33
:100B400028BF1F239342424901D9013201E004D258
:100B5000013A0A7001E01F233B703E4A798813680E
:100B600001F110009842C1F0A9811033994201F2BD
:100B7000A58139493B780A68581C9042C1F0A98187
:100B80000132934201F2A581069B5BBB294B1B6896
:100B900033B1324804F000FD254804F0FDFC33E099
:100BA0002F4BD3F8C035002B63D1059B132707FBD0
:100BB00003F84FF00A09059B01224B4513BF07FBC1
:100BC00009F00EA940460FA909F1010903F0B4FC90
:100BD000B9F1120FEFD1059B0133122B28BF0A2365
:100BE000059346E01F4B1A6872B9124A01275268F2
:100BF000002A3DD01C481F6004F0CEFC0C4804F0D5
:100C0000CBFC1A4B1F6033E00123069331E000BF99
:100C10003813002098C2000848BF0008941700202D
:100C200024000020500100204406002074BF00086A
:100C3000B8C1000870070020B8BF0008ADBF0008A9
:100C4000C9BF000800080140D6BF000806C0000860
:100C50001800002044000020200000200AC00008E6
:100C6000140C0020C801002019C000087C010020DD
:100C70000697824A1368002B5CD0814B814F1B681A
:100C80006433FB61804B1B68013BBB617F4B1B687E
:100C90007B617F4B196807294FF000010CBF0B46A1
:100CA0001B68B9623B627B4B11601B683B617A4BEE
:100CB0001B68FB600F23BB60784B1B680BB107F010
:100CC00069FDD7F8BC103A696E4B914204D1D3F854
:100CD000C020DB689A4206D0714B5B680BB105F00F
:100CE00085FB04233360FA69BB697869396AD7F8F0
:100CF00010E0D7F80CC0D7F8088002F26C7201330C
:100D0000C7F8B020C7F8B430C7F8B800C7F8AC10BF
:100D1000C7F8BCE0C7F8C0C0C7F8C4808DE8014080
:100D20006048CDF80C8050F82110CDF808C05E481E
:100D300005F0BCF95D4B1B68002B3DD0574B1B6881
:100D4000002B36D007F09AFD98B34E49D1F8BC304D
:100D50000869834204D1D1F8C020CB689A4201D0FF
:100D600004233360CA698B690F6AD1F814E0D1F8A3
:100D70000CC0D1F8088002F26C720133C1F8B020C7
:100D8000C1F8B430C1F8B8E0C1F8AC70C1F8BC002B
:100D9000C1F8C0C0C1F8C48042490190CDF80C80B0
:100DA000CDF808C0CDF800E051F82710404805F014
:100DB0007DF93E4B00221A60A36A7BB1606B68B973
:100DC000A3695BB13B490B6843B13B4A936843F469
:100DD000A0039360394B01221A600860384F3B68CA
:100DE00083B12F4B5B683BB1364901220B7803B9C5
:100DF0001946354808F0ACFB40F6D86200233B604A
:100E0000324B1A60324B1A68002A00F09E801D4F48
:100E100000221A60D7F8B030A3F26C73FB61D7F8E8
:100E2000B430013BBB61D7F8B8307B61D7F8BC3038
:100E30003B61D7F8C030FB60D7F8C430BB60D7F84F
:100E4000AC303B62164B5B680BB105F0CFFAD7F8BC
:100E5000AC20D5F82C80D7F8BC30D7F8C0103C2097
:100E600000FB03134146002009F00AFF002845D08B
:100E7000B8F1000F2ED0012100202DE0180600202F
:100E80002C0600202C2500207001002040060020A8
:100E90005C070020DC050020F8050020A0000020F1
:100EA0007007002098C200082CC000083C080020F1
:100EB00048BF000860070020002401409001002086
:100EC0007C0100207800002055C0000810000020A0
:100ED0001C0600204146012009F08EFCDFF898E254
:100EE0003060E96AA248D7F8BC20002914BF7146D7
:100EF0000146D7F8C0309F4805F0D8F8D7F8AC20A5
:100F0000D5F83080D7F8BC30D7F8C0103C2000FBB3
:100F100003134146012009F0B3FE90B1B8FA88F0FE
:100F2000400906F07FFDD7F8BC209148216BD7F827
:100F3000C030914F002914BF394601468F4805F053
:100F4000B5F833680BB9042333608D4B1A68002A57
:100F500064D000271F60EB6A002B5FD040F6BA62B6
:100F6000884B1968914204D91968874805F09EF8A2
:100F700054E0864BDFF82092D3F8B410D3F8B820B1
:100F8000D3F8B00002EB012881490A688A469042F2
:100F90000BD1804BD9F800901B687F4A099300233E
:100FA0009C461946DFF8E4A112E0D3F8B0300B609C
:100FB000D9F800309F42ECD23846DAF8001009F038
:100FC00035FD0137F4E7176CF80704D401314432DA
:100FD0004945F8D11EE0DAF8C0B0D2F808E0BBFB12
:100FE000FEF70EFB17B7002FF0D1576927B1B845B0
:100FF000ECD3506C8045E9D8F44507D3E6D1002FF7
:1010000009981CBF084601230990DFE70991F446BF
:101010000123DBE713B15F4B099A1A605F4BDFF8DE
:1010200084811A681AB300271F605D4B1B68F3B1F7
:10103000D8F8009009F0EAFDC8B1552009F09AFDF2
:1010400007F010FC442009F095FDB9F1000F0ED017
:1010500043F2154909F0AEFD013710B94F45F9D1FA
:1010600003E043F215439F4201D109F0CFFDD8F8C8
:101070000030F3B14B4B00221A60494B1B68B3B1EF
:1010800005F0AAFB484B10F0010F0890474A4FEAC1
:10109000500108BF1A46464805F008F8454B5B6802
:1010A0003BB1454B1720596805F07CF901E0FF235F
:1010B0000893424B1A68E2B1414F00221A603B6824
:1010C000ABB105F07FFC384B10F0010F0490374AAC
:1010D0004FEA500108BF1A463A4804F0E7FF354B83
:1010E0005B6833B1B968152005F05CF901E0FF23B6
:1010F0000493284FDFF8E89039681F2900F2E48054
:10110000254A4FF0440808FB01235B689246013BE7
:10111000082B00F2D680DFE803F00525656F8B957C
:10112000A47D900008FB01A127481C3104F0BEFFFC
:101130003868264A08FB00F80AEB0801CB68244807
:10114000042B98BF05231C31C2F80C3409F086FA31
:101150003B684FF0440808FB03A81E4BD8F80C204E
:101160001A60AEE01C4B01221A601C483EE000BF32
:101170004CC200085AC000088ECE000879C0000892
:101180002806002010000020A2C000082C25002006
:101190003406002004000020082A00204806002011
:1011A0003813002054070020BAC1000854BD0008BD
:1011B000D2C000087007002090000020E405002045
:1011C000A0000020EEC0000806C10008CC010020ED
:1011D00018C10008000600201006002027C10008E2
:1011E000580700200123A948C9F8003004F0D4F9B9
:1011F000A74804F0D1F964E0002005F021F83B682D
:101200004FF0440808FB03A8A24BD8F80C20A248D2
:101210001A60EBE7012005F013F83B684FF0440833
:1012200008FB03A89B4BD8F80C209C481A60DDE70C
:10123000022005F005F89A48D8E7032005F000F8E9
:101240009848D3E708FB01A197481C3104F02EFF12
:10125000386808FB00A01C3007F070FA04233360E4
:101260002FE008FB01A808F11C082F2140460AF0D6
:1012700058F9099008B38D494046D1F8BC20D1F8FF
:10128000C0104FF03C0B0BFB021B09F0F9FD099B52
:101290008246581C09F0F4FD8046584609F07AFD54
:1012A00078B151464246824804F000FF48EA0A21DC
:1012B00089B20F2003F050FC03E041467D4804F062
:1012C000F5FE20233B6015E07B4A136893B1591C5F
:1012D00008D16B6A73B9A36A63B1784B1B68053395
:1012E000136007E0754909688B429FBF00231360B4
:1012F00004233360D9F800307BB1714B00221A60AF
:10130000089BFF2B02D1049BFF2B06D0184606F04A
:101310002FFE694B4FF0FF321A60DFF8D481D8F806
:101320000070BFB3EB6A73B3664BD3F8C025994620
:101330004AB33B2F27D8002003F004FA03F0A8F8A3
:10134000092003F06FF8CB46FF004FF0000AD9F8F0
:1013500018309A450CD207EB0A035B4493F87F00E0
:1013600030B1222804D003F05DF80AF1010AEEE75B
:10137000282003F057F8512003F054F8562003F0CA
:1013800051F801236B624C4B4FF0FF321A6000237F
:10139000C8F800304C4B1A68002A3FD00020DFF814
:1013A0005481424F186018F8013F93B31B2830DC7A
:1013B000592B1ED006D8442B0CD04D2B1ED1BA6908
:1013C000013208E06D2B0CD0792B0FD0642B15D196
:1013D0007A6911E07A693D4913AB18440AF06EF856
:1013E00013E00D2811DCBA69013205E0FA69643AAC
:1013F000F1E7FA6902F26C723549EDE732AA10445E
:1014000000F87C3C002300F87B3C13A80AF0A9F804
:10141000C9E713A807F092F90423336032682D4F0F
:10142000002A72D0274BD3F8C01500296DD01B6855
:101430002968013B99425FD1274B1B6863B105F0D6
:10144000CBF9264B10F0010F8046254A4FEA500198
:1014500008BF1A4623480EE0234B1B68002B52D0CE
:1014600005F0B0FA1D4B10F0010F1D4A08BF1A46D7
:10147000804641081D4804F019FEB8F1130F42D907
:101480003A68A8F1140100203BE000BF34C1000815
:10149000B8C100080006002048C100085DC100086E
:1014A0007BC100088BC10008A4C100082C250020C6
:1014B000BBC10008D4C100089801002044060020E8
:1014C00058070020140C00201006002050CE000801
:1014D000ABC600082400002038130020BAC1000861
:1014E00054BD0008F6C10008A00000201BC200087F
:1014F00088010020FF190020A94BD3F8BC00D3F8C5
:10150000C01006F041FA00233B60A64B1A68002A7F
:1015100000F0B081A44AD2F8C025002A00F0AA81C8
:1015200000211960A14B1B681B7863B1A04AD5F854
:1015300068021368013383421360C0F09B8111601D
:1015400006F046FD96E16A6B002A79D0E26A002A2D
:1015500000F09081DFF878828DF84C30D8F8007078
:101560008DF84D308DF84E30002F3ED1BA46DFF861
:101570007C9207F809A03846002213A9013702F02F
:10158000DBFFB7F5AB7FF4D18A4F02F0D1FF3B68A8
:10159000894AC3F112035B0813607B68874AC3F171
:1015A00013035B0807F5AF70136009F0DAFF844B93
:1015B000186007F52D7009F0D4FF824B824A18603D
:1015C000D7F80C34042B9CBF0523C7F80C34D7F88C
:1015D0000C3403F18063013B9B0113607B4B0022C1
:1015E0001A600123C8F8003044E1784B1F680137C6
:1015F000FA071F601AD57F2F01D87B0806E0724BCF
:101600001B68DB1B7F2B00F235815B08EA687A32AE
:1016100055F822209A42099280F06A84684B1B6830
:10162000002B40F0668401E002F082FF664B1B68ED
:101630009F42C0F01F81664A00231360636319E173
:10164000236A0D2B20D8E26A1AB9626A0AB9A26A23
:10165000F2B96A6A1AB1142202FB034312E0A76AC4
:10166000B7B9042B02D1D4F8A4300CE0142000FB4D
:1016700003435849986D0A68013282420A60C0F0FB
:10168000F9800F605B6D9847AB6A002B00F0F28029
:10169000AB68012B48D1504AD4F87C111368013350
:1016A000B3EB411F13604DD34C4800231360036814
:1016B000013B052B00F2B384DFE803F0030A1118A5
:1016C000222C95F845303E2B00F2A984013313E01B
:1016D00095F84430002B00F0A284013B16E095F809
:1016E00046303E2B00F29B84013319E095F84530DB
:1016F000002B00F09484013B84F8453000F08BBC53
:1017000095F844303E2B00F28A84013384F844304B
:1017100000F081BC95F84630002B00F08084013B3E
:1017200084F8463000F077BC022B0BD11C4A2C4BBE
:10173000D2F8BC001968884204D0D2F8BC201A60E4
:1017400006F0E4FE6B68032B70D1264AD4F8CC1166
:1017500013680133B3EB411F136075D32248002394
:1017600013600368013B052B00F27E84DFE803F081
:10177000030A11404A5495F848303E2B00F2748415
:1017800001333BE095F84730002B00F06D84013BBE
:101790003EE095F849303E2B00F26684013341E08B
:1017A0002C2500203C060020140C0020BC0000204A
:1017B00068070020CC010020C00100205401002057
:1017C000E80500206C01002038060020BC01002044
:1017D00074010020640100200C060020FC0500209C
:1017E0000C00002060010020580100203C16002061
:1017F00095F84830002B00F03784013B84F84830DE
:1018000000F057BC95F847303E2B00F22D84013391
:1018100084F8473000F04DBC95F84930002B00F0BB
:101820002384013B84F8493000F043BC042B0BD1E6
:10183000A54AA64BD2F8BC001968884204D0D2F859
:10184000BC201A6006F0A0FDEB6A9BB9D4F830808A
:10185000B8F1000F0ED19E4F3B685BB14FF21802FA
:101860009C4B9D485A6103F097FE9C4803F094FE00
:10187000C7F800809A4B1A68002A00F00C810021FA
:101880001960984B1F686368013B012B00F20381CC
:10189000236C954A9F4228BF0F461368BB42934B67
:1018A0004AD019602B6917600F2B28BF0F238A338A
:1018B00055F823208E4912A802F08EFD8D4A9DF81E
:1018C00048309DF849109DF84AE012F8130012F8CC
:1018D0001110894B12F81E20187059709A70EB691C
:1018E0001B072CD51423B0FBF3FEDFF814C2BEF1A6
:1018F000000F01D14FF0010EB1FBF3F3CCF800E083
:10190000DFF800E203B90123CEF800301423B2FB64
:10191000F3F3DFF8F4E103B90123CEF80030774B9D
:101920004FF0000E83F800E083F801E083F802E056
:10193000D87019715A7102E01A6801321A60EB69A5
:10194000180737D56E496D4AD1F800C06A49137837
:10195000087863448342D4BF137010705378694A87
:101960006648D2F800E04A78734493426649D8BF8B
:101970004370624BC8BF427008685F499A788978A3
:1019800002448A42C8BF9970D978D8BF9A70B1EB27
:101990000C015A4A48BF0021D1701A795749B2EB5D
:1019A0000E025B7948BF00220A711B1A534A48BFD6
:1019B000002353716B68012B42D1002005F0D4FF46
:1019C000D4F8B431990725D5236C3C2B22D1E36997
:1019D000484A13F0040F12D04C4B19784FF000080E
:1019E00032F811108DF84C10597832F811108DF82A
:1019F0004D109B7832F813308DF84E3001E0444B97
:101A0000EBE7404613A908F1050807F013FAB8F10F
:101A10003C0FF6D1EB691A0729D5002FBBBF206C0C
:101A200036493649C019A8BF384607F003FA781E70
:101A300045BF2B6C37493749C01807F0FBF926E042
:101A4000214B0020D3F8C08005F08EFF18F001086C
:101A500010D1474506D04046274907F0EBF908F179
:101A60000108F6E7EB691B0701D5244900E022498C
:101A70003846E2E7E369180707D52649384607F0F4
:101A8000D9F92B6C01379F4201D21B49F6E72B6B2A
:101A90000BB102F011FD204B1A680AB100221A6046
:101AA00013A807F09DFB002800F04D811B4A136826
:101AB000013313601A4A9DF85130116891BBD90760
:101AC00030D5012313603EE12C25002014000020B6
:101AD00074000020000C01403CC20008B8C100089E
:101AE0006407002068010020300600200406002062
:101AF000DB170020D4BC00084C0100202006002089
:101B000050070020C40100208C0100203B00002071
:101B1000380000202306002078010020E005002086
:101B20000806002003F00103142113A8136004F039
:101B3000E7FFFF2800F00781132800F20481DFE8A7
:101B400010F0140002011D0023002F003B00410093
:101B50004B00570061009200A100A900B100BB003A
:101B6000C300DA00EA00CD00FF00E06A0121B0FA0C
:101B700080F0400908F040FE3060E4E0206808B9D9
:101B8000A64B1868013807E0A44B20681B68013B8E
:101B9000984234BF01300020012106F0B9FB09E072
:101BA000236A0BB90D2300E0013B236204F00EFC15
:101BB00006F07EFB04239CE0236A0C2B94BF0133C8
:101BC0000023F2E7964BD3F8BC201AB1D3F8BC201F
:101BD000013A0AE0172208E0914BD3F8BC20162AFC
:101BE00096BFD3F8BC2000220132C3F8BC2014E019
:101BF0008B4BD3F8C0201AB1D3F8C020013A0AE0C9
:101C00003B2208E0864BD3F8C0203A2A96BFD3F88F
:101C1000C02000220132C3F8C0200022C3F8C42033
:101C2000042333607F4B1B68002B00F08C807C4AC0
:101C3000D2F8B030A3F26C73D361D2F8B430013B68
:101C40009361D2F8B8305361D2F8BC301361D2F846
:101C5000C030D360D2F8C4309360D2F8AC30136295
:101C600006F098FD6FE094F84430002B40D0012B33
:101C70000CBF0023023B84F8443006F0F9FB04F06B
:101C8000E7FB35E094F844303E2B31D80CBF3F23BE
:101C90000233F0E794F8453053B3012B0CBF002317
:101CA000023B06E094F845303E2B21D80CBF3F2381
:101CB000023384F84530E0E794F84630C3B1012B95
:101CC0000CBF0023023B06E094F846303E2B0FD8B1
:101CD0000CBF3F23023384F84630CEE7A069524B55
:101CE000B0FA80F0FF22012140091A6006F0DEFB05
:101CF0000223336027E0A36943B14B4BFF2201214C
:101D000000201A6006F0D2FB02233360EB68002B40
:101D1000EED0013B0EE0A36943B1434BFF2201210A
:101D200000201A6006F0C2FB02233360EB680E2B22
:101D3000DED80133E36006F09BFB04F04FFBD7E7EE
:101D40003A4B01221A60DFF8009102F0EBFFD9F85C
:101D50000030002B3EF488AE354B1A683AB90122A8
:101D600034481A6003F018FC334803F015FCDFF820
:101D7000B080324BD8F8C0201B689A423EF474AE53
:101D8000D8F8BC20D8F8C0303C2000FB02302C49E9
:101D9000D8F8AC20002751F837304FEAC70E13F0BF
:101DA000800F07F1010751D08E44DEF804E0704542
:101DB0004CD1C3F3C20E03F007039E4506D1CEEB10
:101DC000020EDEF1000343EB0E0318E00BD2724566
:101DD00006D39A428CBF4FF0000E4FF0010E0DE07B
:101DE0004FF0000E0AE09A4206D9724534BF4FF018
:101DF000000E4FF0010E01E04FF0010E73462BB3C1
:101E0000D8F8AC100F48D8F8BC20D8F8C0300097EC
:101E100004F04CF947F4407136E000BF140C002088
:101E20002C250020A00000202000002058070020C2
:101E30009401002050C20008B8C100080000002032
:101E4000FC07002063C200089C010020082FA2D1DB
:101E5000D9F81490A54FB9F1000F29D008F09AFFD6
:101E600030B3B9F1010F40F06381D8F8C020A04B26
:101E70007AB9D3F8BC20D3F8BC100B2A00F21D812C
:101E8000FF2915D041F4807189B20F2002F064FE61
:101E90000EE0D3F8C0200F2A00F01681D3F8C0203E
:101EA0001E2A00F01781D3F8C0302D2B00F01881C6
:101EB000D8F8C0208F4B1A60FEF7D6BD8E4B11604C
:101EC0005B68002B3EF455AE102004F06BFAFEF771
:101ED00050BEEA680B605B08934205D00F2B88BFA9
:101EE0000F23E36006F0C4FA02233360FEF74CBE12
:101EF0000993BB084FF00008DFF830B20C93CDF81F
:101F00002880DBF800309845BFF48EAB0A9B9A46D8
:101F100003F10809D9440A9BDBF80420C3EB0A0348
:101F20009A4273D9754A1268524505D999F85621D3
:101F3000402A01D9413A00E00022714909688A45E6
:101F400005D299F8AC12402901D9413901E04FF688
:101F5000FF710C9888420AD36A4A6B491068096875
:101F600008EB0002132000FB0210002245E00C9950
:101F7000914246D3099A002A35D099F80020634847
:101F8000303A02EB42028118825C11A88DF84020A1
:101F90004A780D938DF841208A7810A98DF8422057
:101FA000099A06F0BFFB5A4A9DF844100D9B32F87F
:101FB00011108DF848109DF8451032F811108DF869
:101FC00049109DF8461032F811204F498DF84A20EB
:101FD0004C4A0968106808EB0002132000FB02104D
:101FE000002212A90AE0474A47491068096808EB2D
:101FF0000002132000FB0210099A13A9184402F0F2
:102000009BFA0AF1010A09F1010984E708F10108C4
:10201000CDF828A075E706F02BFAFFF793BB3D4BF0
:102020001A680132072A00D101221A601B683A4956
:1020300003603A48026801320D2A026008D1013378
:10204000072B0B607FF47EAB01230B60FFF77ABB9D
:102050000E2A7FF477AB013B0B600BB906230B60B4
:1020600000230360FFF76EBB2D4B1A680132072A6D
:1020700000D101221A601B682A4903602A480268BD
:1020800001320D2A026008D10133072B0B607FF467
:10209000DBAB01230B60FFF7D7BB0E2A7FF4D4AB79
:1020A000013B0B600BB906230B6000230360FFF7B5
:1020B000CBBB05F02BFCFFF7C7BB0C293FF4E2AE0E
:1020C000D3F8BC100C39DBE6BB69D9077FF5F0AE5D
:1020D0000D21D7E6BB699A077FF5EAAE0E21D1E65E
:1020E000BB695B077FF5E4AE0F21CBE69C010020C6
:1020F0002C2500200000002070070020E8050020AB
:102100006C010020C001002054010020B4C200086E
:10211000D4BC00085C010020FC0500204000002029
:10212000140600205801002048000020CC010020A7
:10213000B9F1020F7FF4BCAEFB69002B3FF4B8AEDF
:10214000D8F8C0001E49B0FBF3F203FB1203002BCA
:102150007FF4AEAE1B4B22681B68013B9A4228D12C
:10216000194B1B6863B104F037FB184B10F0010FDB
:102170000746174A4FEA500108BF1A4615480FE0B4
:10218000154B1B68002B3FF493AE04F01BFC0F4B68
:1021900010F0010F0E4A08BF1A46074641080F48C3
:1021A00003F084FF132F7FF683AEA7F11401002004
:1021B00003E0D1F8BC00D1F8C01008F0D9FA77E6F6
:1021C0002C250020140C002038130020BAC1000870
:1021D00054BD0008F6C10008A00000201BC2000882
:1021E0002DE9F04F9BB007F0B9FF031F0790132BA9
:1021F00002F2A280DFE813F0320BA010A010980AC0
:10220000A0101400650D7B0DA010A010A010AF0D44
:10221000E40E2E0FA20F6D0F2010700D950D1B0BED
:10222000BB4C94F84C30A2464F2B00F0E18515D8FA
:10223000442B00F0028507D8412B00F06985432B21
:1022400000F0918502F078B84D2B00F0A68500F2E1
:10225000B781472B00F0CF8602F06EB8612B00F0FB
:10226000A78609D8532B00F08C83542B00F0608490
:10227000522B42F061802BE06E2B00F04683742BD2
:1022800000F073866C2B42F05780022104F14D0060
:1022900002F04AFF0221064604F14F0002F044FF1B
:1022A0000221054604F1510002F03EFF02210746DB
:1022B00004F1530002F038FF964B05EB072503EBC2
:1022C000C602556043F8360003F0A8F802F034B8AF
:1022D000022104F14D0002F027FF0A2802F22C80AF
:1022E000DFE810F00F002F000B00C700CC00D1007A
:1022F0000B015B01100154016001874E0025874CE2
:1023000041E0874A0A24936843F4A0039360854B15
:1023100001221A6012A803F0ABF828B90A2002F0D3
:10232000F3FC013CF6D105E0BDF848207E4B9A80D5
:1023300006F0D2FE7C4B1120998804F033F801F0AE
:10234000FBBF774A0A24936843F4A0039360754B5C
:1023500001221A6012A803F08BF828B90A2002F0B3
:10236000D3FC013CF6D105E0BDF848206E4BDA8085
:1023700006F0B2FE6C4B1220D98804F013F801F07D
:10238000DBBF6A4C0636204606F0D8F9204603F03B
:1023900003F9674803F000F912A806F021FF304660
:1023A00006F01EFF0028FAD07379DB07F7D43DB1A1
:1023B0002946304604F0A4FBFF2801D00028EED1C6
:1023C0000135142D4ED0AB1E112B49D801A252F865
:1023D00023F000BF832300081D24000821240008E7
:1023E00025240008292400082D2400083124000891
:1023F00035240008392400083D2400084124000841
:1024000045240008492400084D24000851240008F0
:1024100055240008592400085D240008454CB1E704
:10242000454CAFE7454CADE7454CABE7454CA9E71C
:10243000454CA7E7454CA5E7454CA3E7454CA1E72C
:10244000454C9FE7454C9DE7454C9BE7454C99E73C
:10245000454C97E7454C95E7454C93E7454C91E74C
:10246000454C8FE7454806F069F904F01DFB01F083
:1024700063BF434B01221A6001F05EBF414B012252
:102480001A6001F059BF012414F0010F14BF392361
:10249000002314F0020F8DF8483014BF39230023B5
:1024A00014F0040F8DF8493014BF392300238DF840
:1024B0004A300025284612A9013506F0A1FCB5F5E1
:1024C000E77FF7D101F0F8FF4FF47A7002F01CFCBF
:1024D0004FF47A7002F018FC01344FF47A7002F075
:1024E00013FC082CD0D1002002F02CF905F00EFAD4
:1024F000254B04221A6001F01FBF022003F0A0FE4A
:1025000001F01ABF032003F09BFE01F015BF00BFCE
:1025100070070020FC0700208C0B00207DC4000801
:1025200000240140900100201800002009C3000889
:10253000B8C1000820C3000837C3000850C3000812
:1025400069C3000878C3000887C3000898C300085F
:10255000A9C30008C2C30008DBC30008F6C3000813
:1025600011C400082BC4000845C4000861C4000859
:10257000EFC20008DFC2000806C300088AC40008D2
:102580007C0100205807002024000020A94B0022D5
:102590001A6007F079FD01F0CFBEA74B01221A6047
:1025A00001F0CABE94F84F3094F85020303B1AB175
:1025B000303A0A2101FB0323A04A136001F0BCBE9C
:1025C000022104F14D0002F0AFFD0221054604F1A5
:1025D0004F0002F0A9FD0221064604F1510002F06D
:1025E000A3FD6B1E46EA00242D2B00F27781DFE865
:1025F00013F0A30EA30E2E004500750153007000CA
:102600008C0075019800AA00C000CC00D600E6003E
:10261000A30EA30EA30EF500A30EA30E0C01A30E92
:1026200015017501750175017501A30E3B003D0192
:10263000A30E7501490157015D01630169016F0135
:1026400075017501750175017C01820186017C4B64
:10265000DB6A9C4201F070860121204608F0CCF82C
:10266000784B186001F068BE754B1B6B9C4201F003
:102670006386204605F0D6F901F05EBE704B1B68FC
:102680009C4201F059860021204605F041FE6D4B29
:1026900004221A6001F050BE694B9A691D4632B19E
:1026A000694B0021FF2208461A6005F0FFFEEA6828
:1026B000634B944208D00F2C86BF0F22DA60DC6097
:1026C00005F0D6FE05F0D4FD5E4B02221A6001F043
:1026D00033BE5B4D04F002066B68033B012B05D94A
:1026E00026B1EB699F0701D405F0A4FE05F070FE4A
:1026F000EC610EB905F08AFE01236B6205F0E8FD7E
:10270000504B04221A6001F017BE4F4BFF221A6093
:1027100014B10021012001E02146204605F0C6FE4B
:10272000D2E7474B1A6A944201F006860D2C02D874
:102730001C6205F0BDFD454B00221A60414B04228E
:102740001A6001F0F9BD3E4B5A68944201F0F485DD
:10275000042C09D85C60DB699C0701D405F056FEA7
:1027600005F036FE05F022FD364B04221A6001F01A
:10277000E3BD772C324B8ABF78221C641A6402F0C6
:102780008BFE05F003FD01F0D7BD762C2C4B8ABFE4
:102790000022DC63DA6305F0E9FC01F0CDBD284DD1
:1027A0002B699C4290D00F2C86BF0F232B612C618C
:1027B00005F0ACF82B696B6105F008FD84E7204B50
:1027C0009A68944201F0B885022C01F2B5859C60AC
:1027D00005F0C0FE05F05CFD01F0AEBDE005E5B220
:1027E00048BF6D4229461A4803F060FC05F10C030E
:1027F000182B01F2A185174B5A69954201F09C856F
:102800005D6103F04FFE01F097BD134B5C6004F077
:10281000A5F8124B01221A6001F08EBD104B1C600E
:1028200003F0C2FF0F4A012313600F4A136001F047
:1028300083BD00BF4C00002010060020880100204E
:102840009417002024000020200000203C060020D7
:1028500097C4000878000020A0000020E4050020B4
:10286000900000204806002054070020102C9E4BAA
:102870008ABF1022C3F86842C3F8682205F0DCFB67
:1028800001F05ABD994B214699489C6003F00EFC1B
:10289000A1B2062002F060F902F04EF901F04CBD41
:1028A000924BDC6002F034F901F046BD8F4B1C61A5
:1028B00002F01AF901F040BD8C4B5C6102F004F9A2
:1028C00001F03ABD894B9C6102F0EEF801F034BD95
:1028D000864BDC6102F0D8F801F02EBD2246294675
:1028E000844803F0E3FB01F027BDA1B20F2002F002
:1028F00033F901F021BD804B1C6001F01DBD7F4B01
:102900001C6008F027F901F017BD022104F14D0009
:1029100002F00AFC0221064604F14F0002F004FC1A
:102920000221054604F1510002F0FEFB1EB1012E0A
:1029300014D001F001BD3F2D01F2FE840F2801F2F9
:10294000FB84694B7A3543F8250005F09BFB05F0C5
:102950008FFD6B4B02221A6001F0EEBC3F2D01F29D
:10296000EB840F2801F2E8845F4B8A3543F8250099
:1029700005F074FB04F0CAFF614B02221A6001F0FB
:10298000DBBC022104F14D0002F0CEFB0B2801F26A
:10299000D384DFE810F01200D10CD10CD10C1A0056
:1029A0002A0037000F000C007B0084009600554B76
:1029B0002E2152E0534B2E2136E0534805F0BEFE47
:1029C0004F4B04221A6001F0B7BC4F494F4808F042
:1029D000C0FD4F4B1B68002B01F0AE8410224B4909
:1029E000AA2007F055FE01F0A7BC2022464949481D
:1029F00008F0D4FD2022474940F2471007F048FE76
:102A000001F09ABC20224049434808F0C7FD404BE2
:102A10001B68002B01F0908420223F4940F2671090
:102A200007F036FE01F088BC13F8012F1AB12C2AEA
:102A300008BF1970F8E708223349384808F0AEFD9E
:102A4000334B1B68002B01F077840822334940F296
:102A5000871007F01DFE01F06FBC13F8012F1AB1AB
:102A60002C2A08BF1970F8E7082227492C4808F0DB
:102A700095FD274B1B68002B01F05E840822284936
:102A800040F28F1007F004FE01F056BC3F221E49B1
:102A9000244808F083FD06F0CDFD01F04DBC3F2237
:102AA0001949214808F07AFD194B1B68002B01F0E9
:102AB000438440221C4940F23F2007F0E9FD01F029
:102AC0003BBC05221049194808F068FD064900235F
:102AD00081F87132062201F51B7140F2A57007F0F2
:102AE000D7FD01F029BC00BF941700209C010020F5
:102AF000AAC40008C4C4000804000020082A00205A
:102B000024000020BE070020BF070020780000201E
:102B1000D8110020E4120020051300202613002005
:102B20002F1300205825002098250020001A00208F
:102B3000022104F14D0002F0F7FA002841F0FC8375
:102B400094F84F206421A2F1300394F85020CA4D2C
:102B5000303A4A434FF47A7101FB032294F8511042
:102B60000A23303903FB012194F85220303A0A44F9
:102B700094F85310EA61A1F1300094F8541002F275
:102B80006C72303903FB001194F85500A961A0F173
:102B9000300694F856000131303803FB060094F8F3
:102BA00057606861A6F1300794F85860303E03FB27
:102BB00007662E6194F85960A6F1300794F85A60C0
:102BC000303E03FB0766EE6094F85B6094F85C406F
:102BD000303E303C03FB0643AB6002F0C9FAA74B22
:102BE00028621B682C460BB105F0D4FDD4F8BC104C
:102BF0002269A14B914204D1D3F8C010DB689942FD
:102C000002D09F4B04211960E36903F26C73C4F88E
:102C1000B030A3690133C4F8B4306369C4F8B83084
:102C2000236AC4F8AC30E368C4F8BC20C4F8C030F0
:102C3000A368C4F8C43001F07FBB022104F14E0048
:102C400002F072FA94F84D500746432D41F0748318
:102C5000022104F1500002F067FA0221C5B204F12A
:102C6000520002F061FA0221C6B204F1540002F0EF
:102C70005BFAC0B2AFB93F2D28BF3F253F2E814B35
:102C800028BF3F263F2828BF3F2083F8445083F8C1
:102C9000456083F8460005F0EBFB05F05DFB01F0B5
:102CA0004BBB012F1BD13F2D28BF3F253F2E754B1E
:102CB00028BF3F263F2828BF3F2083F8475083F88E
:102CC000486083F8490083F84A5083F84B6083F8E2
:102CD0004C0004F01BFE05F0A3FA01F02DBB022FFF
:102CE00041F02A833F2D28BF3F253F2E654B28BF4B
:102CF0003F263F2828BF3F2083F84D5083F84E6081
:102D000083F84F0005F03CFC05F070FA01F014BBAD
:102D1000022104F14E0002F007FA94F84D600546D6
:102D2000442E11D0462E41F00783022104F15000B9
:102D300002F0FAF9534A142303FB052318662846C8
:102D400005F0F4F901F0F8BA022104F1500002F0A4
:102D5000EBF94C4A142303FB05239865284605F03C
:102D6000E5F901F0E9BA022104F14E0002F0DCF9C4
:102D700094F84D600546442E41F0DE82022104F1B4
:102D8000500002F0D1F93F4B03EB0513C3F86C017F
:102D9000284605F0AFF901F0CFBA022104F14E0048
:102DA00002F0C2F994F84D600546442E11D0462E2B
:102DB00041F0C282022104F1500002F0B5F9314B1A
:102DC00003EB0513C3F8A401284605F06FF901F0E1
:102DD000B3BA022104F1500002F0A6F9294B03EB2B
:102DE0000513C3F89C01284605F060F901F0A4BA68
:102DF00004F14E00022102F097F994F84D50044678
:102E0000A5F14303162B01F29782DFE813F050007F
:102E10004100950A9300950A950A2600950A950A9D
:102E2000950A950A8000950A950A950A950A5F0009
:102E30001700950A950A950A950A6E000221124814
:102E400002F072F9114A13689C4281F075824423A2
:102E500003FB0424606001F06FBA02210A4802F00B
:102E600063F90A4A13689C4281F06682442303FB9B
:102E70000424A06001F060BA2C250020A0000020EE
:102E80002400002094170020C0070020082A0020FA
:102E90000221C44802F048F9C34A13689C4281F0F9
:102EA0004B82442303FB0424E06001F045BA022175
:102EB000BC4802F039F9BC4A13689C4281F03C825C
:102EC000442303FB0424206101F036BA0421B548F1
:102ED00002F02AF9B44A13689C4281F02D824423FF
:102EE00003FB0424606101F027BA0221AD4802F01F
:102EF0001BF9AD4A13689C4281F01E82442303FBF8
:102F00000424002808BF0120A06101F015BAA64DD5
:102F10002B68984281F0108244235C4328192022B8
:102F2000A0491C3008F03AFB2C44002384F83C30C4
:102F300001F002BA9C4D02219A4802F0F5F82B6884
:102F40009C4206D2442303FB04531864204607F036
:102F5000C3FD964BD3F8B0102B689C4281F0EC81F6
:102F6000204607F063FD01F0E7B9022104F14D00AE
:102F700002F0DAF80221064604F14F0002F0D4F81C
:102F80000221054604F1510002F0CEF80221074665
:102F900004F1530002F0C8F8854B05EB072503EB5D
:102FA000C602556043F8360007F0ACFE01F0C4B924
:102FB000022104F14D0002F0B7F80221064604F1A7
:102FC0004F0002F0B1F80221054604F1510002F071
:102FD000ABF80221074604F1530002F0A5F8754B47
:102FE00005EB072503EBC602556043F8360007F0F2
:102FF00089FE01F0A1B994F84D30532B00F01082F6
:10300000542B41F0998194F84E30732B41F0948108
:10301000DFF8B081684F694E0025D8F80C20791987
:103020000AA805F07FFB664C9DF82820AB1934F800
:103030001220AA559DF82920033534F81220152DA9
:103040005A709DF82A2034F812209A70E5D15D4B11
:103050005D49DA680AA805F065FB9DF828205B4BFE
:1030600034F812201A709DF8292034F812205A7072
:103070009DF82A2034F8122000249A70544B1C70BA
:103080005C709C70204600225149013401F054FAD2
:10309000B4F5AB7FF6D140F24514204600224B49EF
:1030A000013401F049FAB4F5A87FF6D1494D0D2657
:1030B00000274FF07C080024A6F10B002F606F6002
:1030C000AF602246414901F037FA85F8008030466A
:1030D00022463E4901F030FA40F2631313369E4215
:1030E00085F80B8005F10C05E5D13B4E07233268CE
:1030F0003A4DB2FBF3F3C3EBC303D31A384A85E866
:103100001800D35CA946C3F10202AA60C3F10C0304
:10311000022293FBF2F30120EB6003F02FFA32233B
:103120000493012303940293089601F001FA2D4DB4
:10313000002607F013F809280DD195F84C30472BDD
:1031400009D195F84D30542B05D1264B93F84E30CC
:10315000712B08D142E10A2001F0D6FD049B013613
:103160009E42E6D162E06D2B57D007D8642B51D038
:103170006C2B5BD1194EF568013D07E0722B02D034
:10318000752B31D052E0154EF56801352A46B168ED
:10319000706803F0BBF90028C7D0002003F0EEF9F7
:1031A000F56033E0C0070020082A00202C2500200D
:1031B000382900207C290020B1C60008BA1400205C
:1031C000D4BC000894170020D2C200084308002095
:1031D0003C130020DC11002050010020401300208F
:1031E000D8C2000870070020844B5D68DA68032DA0
:1031F00014BF013500259968284603F087F9002897
:1032000093D0002003F0BAF97C4B5D60012003F0FD
:10321000B5F98AE703F0F0F987E703F0EDF928B193
:1032200001F086F9322001F06FFDF6E703F0E4F9D2
:1032300000287FF47AAF714A714FD3681168069302
:10324000536801F1010B03EB810396686D490C2271
:1032500001EB830A02FB06F35FFA8BFB05934FF049
:103260000108069B08FA00FEC518059B5919394448
:1032700000231AF803C01CEA0E0F0AD006EB030C59
:10328000BCF1110F05D80B2D9CBF02FB03FC01F80C
:103290000CB00133042BECD101300428E1D100271C
:1032A000102501263146284603F01EF9002849D092
:1032B00001360B2EF6D1544B4FF00C0808FB0533AA
:1032C000A84613266E430593F31C0693B8F1000F2E
:1032D00029D0DDF818A0DDF814B001261BF8012F65
:1032E00031468BF80C204046099203F0FDF838B1C6
:1032F000099A464B511E01EB41010022194401E09D
:10330000024643495046013601F016F90B2E0AF1E8
:10331000010AE3D1059B08F1FF380C3B0593069B9E
:10332000133B0693D2E70326354B3046334403F86C
:10333000028C00223649013601F0FEF80D2EF3D141
:103340000137013515F1FF35ABD217B3022F05D088
:10335000032F05D0012F06D1282306E0642304E0C3
:103360004FF4967301E04FF49663029A03FB024414
:10337000039B3B44092B039309D9029B013302931E
:10338000049B092B84BF053B04930023039301F0A6
:10339000CFF8089B01201A680723B2FBF3F3C3EBB5
:1033A000C303D31A0022C9F804201A4AC9F800300E
:1033B000D35CC3F10202C9F80820C3F10C03022256
:1033C00093FBF2F3C9F80C3003F0D8F809F10400CC
:1033D00007C803F09BF800287FF4A7AEC82001F0CF
:1033E00093FC22460C4912A808F068F812A805F0D0
:1033F000A5F90A4B04221A6000F09EBF401300207A
:10340000DC11002091CE0008D0110020BA14002059
:103410003C130020D8C20008EAC4000824000020A1
:1034200094F84E30732B40F08787AC4DAC4E284655
:10343000F268AC4905F076F9AB4C2A78AB4B34F81E
:103440001220AB491A706A78DFF8C0B234F8122043
:103450005A70AA78A74D34F8122028469A70F2685C
:1034600005F060F92A78A44B34F812201E211A7056
:103470006A78012034F812205A70AA7834F81220A1
:103480009A709E4A00231370537093709C4A136085
:103490009C4B029219609C49039308600023FF2013
:1034A000002203EB0B0188540132132AFBD11333A2
:1034B000B3F5AB7FF4D1954B0024944A83F83B409D
:1034C000FE2382F82830924B03221A70914B02257A
:1034D0001D70914B20461D6003F0A4F8012003F0FD
:1034E000A1F8284603F09EF82046002283490134C3
:1034F00001F022F8B4F5AB7FF6D10326844B1D789A
:10350000844BA9461C7827464FF0130808FB09F3A3
:103510000022D8197549049301F00EF8049B5B440E
:10352000DB5D032B0CD8DFE803F00205080A09F184
:10353000FF3905E009F1010902E0013F00E0013730
:1035400008FB09F0714B0344DB5DFE2BDCD13844F2
:103550000022664900F0F0FFDFF8C491DFF8C48173
:10356000002717F8090017F808304FF0130E002253
:1035700061490EFB0030013700F0DEFF032FF0D170
:1035800000F0D6FF654F4FF00008039B1B6898457D
:1035900032D206F0E3FD09281BD19AF84C30472BB4
:1035A00017D197F84D30532B13D15C4B93F84E3015
:1035B000712B00F0A38604D8642B18D06C2B0ED08E
:1035C0001AE0722B0ED0752B16D1711E4E424E4151
:1035D00012E00A2001F098FB08F10108D5E7032E5C
:1035E00015D11AE0022E00F06886032615E0002EA1
:1035F00000F08486012608E0022E09D0032E0CD0AC
:10360000012E02D0013D6A1C04E0013506E00226CD
:10361000013C631C00F0728600E00134112D00F3C0
:103620006D86122C00F36A86384B132202FB05329A
:103630001319125DFF2A40F06186354A022E15707B
:10364000344A147006D0032E06D0012E14BF012276
:10365000002202E0032200E002221A700020304B18
:103660001B5C9D4204D12F4B1B5CA34200F02886BB
:1036700001300328F3D11327BC46244B07FB053345
:103680001B5D032B0CD8DFE803F0020407096A1E58
:1036900000E06A1C234605E0631E02E0631C00E0B4
:1036A00023462A460CFB02F00BEB000101EB030E54
:1036B000C95CFE2902D01C461546DEE7FF22134FE7
:1036C0008EF80020132202FB0575184429550022AC
:1036D0000A4900F031FF00F000BE00BF680800207A
:1036E00094170020AEC60008D4BC00084008002093
:1036F000D5C20008460800205C08002070080020A1
:10370000500800207C08002054080020641300208A
:103710008108002080080020600800207007002039
:103720000C0C0020040C00200A220AA9434807F0D0
:103730009FFE434B434A5B6902444FF4616101FBC6
:1037400003231AAC44F8203D204607F0B1FB03697F
:103750000546DA1E052A40F2C785022B0CD1826984
:10376000C3689B1A182B14DD002A40F0BD858368BE
:10377000012B00F3B9850CE0092B0AD18269C368DB
:103780009B1A182B40F3B0851AB98368022B40F3BB
:10379000AB852D4C6B69E3612B69A361EB686361B9
:1037A00029696A69E86802F26C72013101F0E0FC93
:1037B00020622B6AA362AB6823616B68E3602B68AD
:1037C000A360224B1B680BB104F0E4FFD4F8BC10DB
:1037D00022691D4B914204D1D3F8C020DB689A4284
:1037E00004D002F003FE1A4B04221A60E369194A5E
:1037F00003F26C73C4F8B030A3690133C4F8B43079
:103800006369C4F8B830236AC4F8AC302369C4F8DB
:10381000BC30E368C4F8C030A368C4F8C430D4F83E
:10382000C430C3F56E630C33136000F085BD012214
:103830000021094805F08CFE00F07EBDBC07002089
:10384000780000208081557C2C250020A0000020DD
:103850002400002010000020F6C40008B24AB3493A
:103860000AA807F02BFEB049B14802F01FFC01F096
:103870008BFE0021084602F095FDAE4B0120196831
:1038800002F090FDAC4BAD4DD988AD4C1D2002F03F
:1038900089FD2968022002F085FDE16A032002F01B
:1038A00081FD216B1E2002F07DFD2168042002F0C5
:1038B00079FD02F093FDE169072002F073FDA16933
:1038C000082002F06FFD02F081FD61680B2002F01C
:1038D00069FD216C0C2002F065FDE16B0D2002F00A
:1038E00061FD984E21690E2002F05CFDA1680F2059
:1038F00002F058FD7188102002F054FDB1881120AB
:1039000002F050FDF188122002F04CFD8E4B132086
:1039100059690029BDBF494289B241F4807189B219
:1039200002F040FD894B1420196802F03BFDA968A4
:10393000152002F037FD6968854D162002F032FD32
:103940006968172002F02EFD2968182002F02AFD70
:10395000D4F868121F2002F025FD7E49012002F0F4
:1039600011FD7549022002F00DFD7749042002F097
:1039700009FD7949052002F005FD7849062002F08D
:1039800001FD7749072002F0FDFC7649082002F08E
:10399000F9FC7549092002F0F5FC74490A2002F08F
:1039A000F1FC73490B2002F0EDFC654D02F01EFDA9
:1039B00002F04EFD6F49012002F036FD6E490220F3
:1039C00002F032FD2E460024326D21466B4802F093
:1039D00045FDB26D21466A4802F052FDF26D214666
:1039E000684802F04DFD326E21466748013402F00E
:1039F00047FD0E2C06F11406E6D1514E0024D6F8F0
:103A000068212146614802F029FDD6F86C21214643
:103A10005F4802F035FDD6F8702121465D4802F07E
:103A20002FFDD6F8742121465B48013402F028FDB1
:103A3000032C06F11006E2D10024D5F89821214686
:103A4000564802F00BFDD5F89C212146544802F05F
:103A500017FDD5F8A0212146524802F011FDD5F8F6
:103A6000A42121465048013402F00AFD052C05F13D
:103A70001005E2D14D4E2E20354655F81C1B02F0A4
:103A800091FC3746002433689C4280F0A38055F8AF
:103A9000182C2146464802F0F3FC3B689C4205D2B4
:103AA00055F8142C2146434802F0EAFC33689C4246
:103AB00005D255F8102C21463F4802F0E1FC33684E
:103AC0009C4205D255F80C2C21463C4802F0D8FC0B
:103AD00033689C420BD235F8083C394A0093394987
:103AE000234612A807F0EAFC12A802F031FC336862
:103AF0009C4205D255F8042C2146334802F0C0FC04
:103B000033689C4204D22A462146304802F0A6FC83
:103B100033689C4204D26A6A21462D4802F0B0FC08
:103B200001344435AFE700BFAC070020FEC40008F5
:103B300004C50008D81100202C250020A00000207A
:103B4000941700201800002078000020381300206F
:103B50009000002026BE0008E4120020051300207B
:103B6000261300202F130020582500209825002020
:103B7000001A0020DB170020E11700201CC50008F8
:103B80001FC5000822C5000825C5000828C5000873
:103B90002BC500082EC5000831C5000834C5000833
:103BA00037C500083AC500083DC50008082A0020AE
:103BB00040C5000843C5000846C5000849C50008BF
:103BC0004CC500084FC500085AC500085DC500086F
:103BD00060C50008B74D002405EBC4035B6855F8C9
:103BE0003420B5490192C3F307220092DBB222468A
:103BF00012A807F063FC013412A802F0A9FB082CFC
:103C0000EAD1AE4D002405EBC4035B6855F83420BF
:103C1000AB490192C3F307220092DBB2224612A8FD
:103C200007F04CFC013412A802F092FB082CEAD1F8
:103C3000A44CA549002004F0FDFDA449012004F096
:103C4000F9FD2168202002F0ADFB6168212002F01F
:103C5000A9FBA168222002F0A5FBE168232002F065
:103C6000A1FB2169242002F09DFB6169252002F05F
:103C700099FBA169262002F095FBE169272002F05B
:103C800091FB934D002405EBC4035B6855F8342089
:103C900090490192C3F307220092DBB2224612A898
:103CA00007F00CFC013412A802F052FB082CEAD1F8
:103CB00001F06AFC0AA804F041FD874B04221A6057
:103CC0003AE38649864802F0F1F9844804F036FD6B
:103CD000814B04221A602FE38049824802F0E6F902
:103CE0007E4804F02BFD7C4B04221A6024E37E4BBB
:103CF00012A993F84C2093F84D307C488DF8493048
:103D000000238DF848208DF84A3002F0CFF9784B27
:103D100012A91A68774B7848C3F80C2406F09EFC69
:103D20000AE3714B12A993F84C2093F84D30734875
:103D30008DF8493000238DF848208DF84A3002F084
:103D4000B5F96B4B12A91A686A4B6B48C3F80C247F
:103D500006F084FCF0E26A4D6A4CD5F800800295CA
:103D6000DFF8C8B1DFF8C8A1674DB8F1000F0DD07A
:103D7000D4F80090DBF80070DAF80060574CDFF8F8
:103D80009CA1DFF8A0B1DFF86C8149E00221534823
:103D900001F0CAF9574E8146306002215B4801F0BC
:103DA000C3F9042107467060594801F0BDF90421A8
:103DB0002060584801F0B8F90421CBF800005648BB
:103DC00001F0B2F9554B07FB09F1C3F80080544AE2
:103DD000544BCAF800001160C5F80080C3F8008099
:103DE000B9F1000F00F0CE80002F00F0CD8000224E
:103DF0004D48114605F0ACFB0120C6E02A684A4553
:103E000012DAB2F5AB7F0ADA3F4B511C196020463B
:103E10000221039201F088F9039A4244107202349D
:103E20002278002AEAD127E0DAF80020BA420FDA35
:103E3000B2F5AB7FF3DA511CCAF80010204602211C
:103E4000039201F071F9039A424482F85E01E6E7B9
:103E5000DBF80020B242E2DAB2F5AB7FDFDA511CC8
:103E6000CBF8001020460221039201F05DF9039A7D
:103E7000424482F8B402D2E7184B9C420AD0274A47
:103E8000296812684F441144264A3E4412680A4485
:103E90009642ACD122492A68086800210E46154C8A
:103EA000904247DDB2F5AB7F44DA01321119CE7191
:103EB0000121F5E73829002063C500087C2900208E
:103EC00075C500089C0100207C190020BC19002049
:103ED000FC07002087C5000824000020BC07002044
:103EE00099C50008AEC5000870070020CCC50008C1
:103EF00000060020CC010020E4C50008F6C500083B
:103F000084080020740800204C080020BE07002010
:103F1000C0070020C4070020C80700206C0800204C
:103F2000880800205808002058C1000878080020A0
:103F30006408002001B12A6000210E469D4A9E4C73
:103F40001368984208DDB3F5AB7F05DA0133191920
:103F500081F85D610121F4E701B1136000210E4693
:103F6000964A954C1368984208DDB3F5AB7F05DAA5
:103F70000133191981F8B3620121F4E701B113602B
:103F8000022002E0484600E03846029B029A1B6885
:103F90000133136030B98A4801F0FEFA894801F014
:103FA000FBFAC9E1022840F0C781874B01225A631E
:103FB000864B1A68864B1B681344864A1360BBE124
:103FC0000221854801F0B0F802210446834801F03F
:103FD000ABF8122C024638D1132836D10221804882
:103FE00001F0A2F87F4B7F280146186029D80221F2
:103FF0007D4801F099F87D4C022120777C4801F042
:1040000093F8022160777B4801F08EF8022120604E
:10401000794801F089F80221A060784801F084F81D
:104020000221E060764801F07FF802216061754866
:1040300001F07AF80122A0617349744805F088FA0A
:104040007AE1734802F032F876E12146714802F0D5
:104050002DF871E10221604801F066F80446022162
:104060005E4801F061F8614D04EB44062E4486F889
:104070003E0402215A4801F057F8022186F83F0415
:10408000594801F051F8574B621C1B6886F84004F0
:104090009A4209D2604912A807F010FA002212A928
:1040A0005A4805F055FA47E1474B2A68196891428A
:1040B00003D300221A6004F01BF92A685749013A19
:1040C00012A807F0FBF9012212A9554805F040FAA1
:1040D00032E10221404801F027F80446434DDFF861
:1040E0005481EF684FEA8009002606F12700BE429E
:1040F00008EB400008D0022101F016F806EB090396
:104100002B4498770136F0E7AA68631C9342454A2E
:10411000126809D2444912A807F0D0F9002212A966
:10412000424805F015FA07E13C4912A807F0C6F924
:10413000012212A93E4805F00BFAFDE002212648B3
:1041400000F0F2FF02210446244800F0EDFF274D65
:10415000DFF8E08005EBC403AF6983F85E024FEA45
:10416000C409002606F12800BE4208EB400009D031
:10417000022100F0D9FF06EB0903C0B22B4483F8FB
:104180005F0280B96A69631C93420ED2174A2649BE
:10419000126812A8013A07F091F9002212A92048EA
:1041A00005F0D6F9C8E00136DCE7074B186802F0E5
:1041B000B9FBC1E06C080020CC01002058080020A9
:1041C00017C60008B8C10008941700204406002054
:1041D0000006002098010020BC070020BE07002038
:1041E000C00700208C080020C2070020140C00200B
:1041F000C4070020C6070020C8070020CA07002007
:10420000CC070020CE0700207AC600082AC6000886
:1042100032C6000851C60008ABC6000875C60008C3
:104220007CC60008100C002081C6000889C6000862
:104230008EC60008700700200221414800F074FF7C
:10424000022104463F4800F06FFF3F4DDFF8248114
:1042500005EBC403AF6983F87E004FEAC40900266A
:1042600006F12800BE4208EB400009D0022100F010
:104270005BFF09EB0603C0B22B4483F87F0078B9DB
:104280006A69631C93420DD2304A3149126812A800
:1042900007F014F9002212A92E4805F059F94BE055
:1042A0000136DDE72C4801F077F92C4801F074F96C
:1042B000254B0122C3F8C0253EE00026FFF7A2B936
:1042C000029B1A68264B1B681344029A1360254A06
:1042D00013680133136002F0A5F9224B1B68B3F594
:1042E000A97F7FF60BA919E0129B204603F56163B5
:1042F000129306F0DDFD0546FFF74BBAC82000F02B
:1043000003FD029B18491A6812A807F0D7F812A8F3
:1043100004F014FA154B04221A600DE0039B1B688D
:104320000A2B7FF6BBA80E490A3B0A6801320A60D5
:104330000F4A1360FFF7B2B807981BB0BDE8F08FC3
:10434000BC070020BE070020140C0020100C002029
:1043500081C600088EC6000893C60008B8C10008D0
:104360005408002060080020A3C600082400002094
:104370007C0800207007002010B50B490B680A4A22
:10438000002BFBD0094B0A4C1868411C2029205CEB
:10439000196004BF00211960C0B272B61368013BF6
:1043A000136062B610BD00BFE40800209008002032
:1043B000F0080020074A02F5AB7112F8013F980798
:1043C0004CBF43F0040323F004038A421370F4D17A
:1043D000704700BF3B1600200B7810B553430F24E5
:1043E000B3FBF4F3DBB203700C7814B10BB9012307
:1043F00003704B780F245343B3FBF4F3DBB24370E9
:104400004C7814B10BB9012343708B785A430F23B6
:10441000B2FBF3F2D2B282708B7813B10AB90123E6
:10442000837010BD10B5174B00EB4000184490F995
:10443000403490F83E14002B90F83F440EDD1322D8
:1044400002FB0141104A114413F1FF3305D311F867
:10445000012F42F002020A70F6E710BD10D01322BD
:1044600002FB0141094A0A440133012B02F1130204
:1044700006D012F8131C41F0020102F8131CF3E7F6
:1044800010BD00BF140C00203B1600203C1600207D
:10449000084B10B503F5AB70012413F8011F01F0B0
:1044A0000201002901F0FF0218BF224683421A7060
:1044B000F3D110BD3B160020034B1B6B1BB14FF417
:1044C000E77004F0C7BC70479417002070B506462B
:1044D0000D464FF4AB7420463146013404F090FC95
:1044E000B4F5E77FF7D11DB1BDE87040FFF7E4BF39
:1044F00070BD000007B50C4A0C4B117833F8111051
:104500008DF804105178927833F8111033F8123086
:104510008DF80510014601A88DF80630FFF7D6FF8B
:1045200003B05DF804FB00BF98000020D4BC000875
:104530004FF4AB7004F08EBCB0F5AB7F70B516468F
:1045400018D2C0F5AA7513240135B5FBF4F004FBAD
:104550001053122413F0010F03BF5C43231A03F11D
:10456000110004FB030004F04BFC1EB1BDE87040D9
:10457000FFF7DEBF70BD000030B5694985B04B6AFA
:104580003BB300234B628B62664B14221C78664857
:10459000B4FBF2F20AB904B1012202605878142285
:1045A000B0FBF2F2614D0AB900B101222A609A789B
:1045B0001423B2FBF3F35E4D0BB902B101232B6060
:1045C0005C4B00251D705D709D705B4B1C705870BE
:1045D0009A708C6A002C40F0A180534B1A68BAB1D3
:1045E000554803789A4202D89B1A037001E00BB138
:1045F000047001234F484B4C057824782A44A2428A
:1046000001D8027002E0A54203D00470012300E04B
:104610001346464A1268BAB1474C6078824202D8C3
:10462000801A607002E010B10023637001234148DA
:104630003C4C457864782A44A24201D8427002E09A
:10464000A54201D044700123394A1268BAB13A4CEC
:10465000A078824202D8801AA07002E010B1002334
:10466000A370012333482F4C8578A4782A44A242B2
:1046700001D8827007E0A54201D0847003E013B92D
:1046800001238B624AE0274A2C4B11782C4D33F8DA
:10469000111000248DF804105178927833F811101D
:1046A00033F812208DF805108DF80620214A117874
:1046B00033F811108DF808105178927833F81110F2
:1046C00033F812208DF809108DF80A201A4A117853
:1046D00033F811108DF80C105178927833F81110CE
:1046E00033F812308DF80D108DF80E30635D022B0B
:1046F00002D1002202A908E0012B02D1002203A965
:1047000003E0032B04D1002201A92046FFF714FF88
:104710000134B4F5AB7FE9D1FFF70AFF05B030BD36
:10472000941700203B000020A0080020D0080020A3
:1047300098080020D80800209C080020D4BC00085D
:104740003C16002073B5244B06461A680AB90126A8
:104750001E60224A224B1178002433F81110214D9B
:104760008DF804105178927833F8111033F8123024
:104770008DF805108DF806308DF800408DF8014059
:104780008DF8024015F8013F03F0020303F0FF0229
:1047900043B1002201A92046FFF7CEFE2B7843F05B
:1047A000010306E069462046FFF7C6FE2B7823F09A
:1047B00001030134B4F5AB7F2B70E3D10A4C2EB169
:1047C00063681BB90120FFF795FE01E0FFF7B0FE1B
:1047D0000123A36202B070BDEC0800203B00002062
:1047E000D4BC00083B1600209417002010B5054CDF
:1047F000636A1BB100206062FFF7A4FF0123A3627C
:1048000010BD00BF9417002073B50546144A154B20
:104810001178002433F81110134E8DF804105178DC
:10482000927833F8111033F812308DF805108DF8A6
:1048300006308DF800408DF801408DF80240A25DF1
:1048400020462A401ABF002201A969460134FFF719
:1048500073FEB4F5AB7FF2D1FFF76AFE02B070BD14
:104860003B000020D4BC00083C160020F8B57E4C6C
:104870007E4D636A5BB106F0A3FC7D4B0340002BC9
:10488000BEBF03F1FF3363F0030301332B602B68DA
:10489000032B00F2E780DFE803F0023772A8636AB7
:1048A000714A23B1002353629362724A1360A26A71
:1048B000002A40F0D7806F4B1868122856D86E4EE9
:1048C000471CB6461F6093190021151A6C188F42B9
:1048D000744404D814F8014C14F0010F02E0A47CD5
:1048E00014F0020F1C7801F1010114BF44F004041C
:1048F00024F0040413291C7003F10103E6D11332E0
:10490000B2F5AB7FDFD12CE0636A574A23B10023B5
:1049100053629362594A1360A26A002A40F0A2804F
:10492000564B1868122821D8461C534F1E6014306D
:10493000D4192346314612291BD8655C15F0010FA6
:104940001D7801F1010114BF45F0040525F00405AF
:1049500081421D7003F10103EDD11332B2F5AB7F3B
:10496000E6D10420BDE8F840FFF74EBF0123A36263
:10497000F8BD651815F8135C15F0020FE0E7636ADF
:10498000394A23B10023536293623D4A1360A26AFD
:10499000002A67D13A4B1D68B5F5AB7FE6D205F129
:1049A000130635481E6002F11304131827189642A7
:1049B000A3EB050104D811F8131C11F0010F03E05B
:1049C00091F8431111F0020F197803F1010314BF9C
:1049D00041F0040121F0040103F8011CBB42E6D1BF
:1049E000B4F5AB7F2246DED1BBE7636A1E4A23B132
:1049F000002353629362234A1360A36A93BB214B43
:104A00001868B0F5AB7FB1D240F2691C00F1130217
:104A1000194C1A60A0F5AB7E1322A2F113030EEB22
:104A200002012344214417191618B6F5AB7F04D2AE
:104A300091F8565115F0010F02E00D7815F0020FB4
:104A40001D7803F1010314BF45F0040525F00405AA
:104A500003F8015C9F4201F10101E6D11332624586
:104A6000DBD17EE7F8BD00BF94170020C808002006
:104A700003000080DC0800203C160020E80800202D
:104A800010090020D408002007B5064B02A9DB69F5
:104A9000012201F8043D40F2872005F0F9FD03B042
:104AA0005DF804FB9C01002007B5064B02A99B6939
:104AB000012201F8043D40F2862005F0E9FD03B033
:104AC0005DF804FB9C01002007B5064B02A95B6959
:104AD000012201F8043D40F2852005F0D9FD03B024
:104AE0005DF804FB9C01002007B5084B02221B69FE
:104AF00001A98DF8043040F283201B0A8DF805309F
:104B000005F0C6FD03B05DF804FB00BF9C0100206A
:104B100007B5084B0222DB6801A98DF8043040F28A
:104B200081201B0A8DF8053005F0B2FD03B05DF859
:104B300004FB00BF9C01002007B5064B02A99B683F
:104B4000012201F8043D4FF4207005F0A1FD03B0EF
:104B50005DF804FB9C0100202DE9FF417E238DF8C8
:104B60000430FF238DF8053006230A0A8DF806303D
:104B700000238DF809208DF807008DF808308DF896
:104B80000A10012201AD515D01320B44072A9BB28C
:104B9000F9D15B429BB21A0A8DF80C30144EEF2308
:104BA0008DF80D30002334469C461249DFF84CE066
:104BB00011488DF80B2015F8038032681F2AFCD8A5
:104BC0000F687A1C1F2A0A600EF8078088BFC1F898
:104BD00000C072B622680132226062B602680133F8
:104BE00042F080020A2B0260E5D104B0BDE8F081FA
:104BF000A4080020E00800200C480040A80800207D
:104C000038B5224C40F22551204603F0F5FEB8B1EC
:104C10004FF6DF7323801E4BA288196892B21F29BA
:104C20000ED81C491C4D0C68D2B2601C1F282A5596
:104C300088BF0022086088BF0A601A6801321A60C3
:104C4000124C40F22771204603F0D6FEE8B14FF631
:104C50007F73124A2380136893B11149114C0B687A
:104C6000581C2028086008BF0020E35C08BF0860CB
:104C70001168DBB201391160044A9BB2938038BDE0
:104C8000094A136823F08003136038BD00480040D0
:104C9000E408002014090020F0080020A4080020E7
:104CA00094080020A80800200C480040002808BFF5
:104CB00064204FF47A73B3FBF0F30D4A13600D4B8D
:104CC000B3FBF0F20C4B1B68B3FBF2F3B3F1807F44
:104CD0000AD20A4A013B5360094BF02183F82310A2
:104CE0000023936007231360064B1860704700BFD2
:104CF0005C00002040420F000800002010E000E0AF
:104D000000ED00E054000020044B1B685843044BA6
:104D100018601A68002AFCD1704700BF5C000020B0
:104D200078290020F0B58D4B85B01B68092B5ED922
:104D3000FFF722FBC0B27E288DF8040057D1FFF7A1
:104D40001BFB8DF80500FFF717FBC0B206288DF896
:104D500006004CD1032401ADFFF70EFB28550134AA
:104D60000A2CF9D100230122A95C01320B44072A45
:104D70009BB2F9D19DF80B109DF80C205B429BB2C1
:104D800042EA0122934202D0754801F08FF99DF862
:104D90000D30EF2B2BD19DF807309DF809109DF8B1
:104DA0000A203D2B42EA01246E4E6F4D6F4820D100
:104DB0007768052F05D12F683D2F1AD10768BC42AF
:104DC00017D1FF232B604FF6FF73694C694A0360CC
:104DD00011782378994240F26E81674A0F20D15CA6
:104DE00041F40071FFF7B8FE2378013323700020EF
:104DF00063E12B603A3B0460132B00F21781DFE87C
:104E000013F0140023002C002F0032003500550051
:104E1000670069006D007000850095009B009E0092
:104E2000A100A400A700AA001101012C01D1534840
:104E300002E0022C06D1524800F0AEFB514800F0CF
:104E4000ABFBF3E05048F7E7012C01D14F48F3E703
:104E5000022C0CBF4E484F48EEE721464E48E3E097
:104E600021464E48E0E021464D48DDE00CB94D4872
:104E7000E2E7E00705D54C4800F08EFB414800F022
:104E80008BFBA10705D5494800F086FB3D4800F0A3
:104E900083FB620705D5464800F07EFB394800F0E9
:104EA0007BFB230740F1C2804248C5E7062C0DD8A2
:104EB000DFE804F00406080C0C0C0A003E48BBE7CF
:104EC0003E48B9E73E48B7E73E48B5E73E4802E00E
:104ED0003E48B1E73E4801F0E9F8A7E021463D48E9
:104EE000A2E0052C10D8DFE804F0030507090B0D3C
:104EF0003948A1E739489FE739489DE739489BE79A
:104F0000394899E7394897E7394895E7032C0BD892
:104F1000DFE804F00204060836488DE736488BE7E0
:104F2000364889E7364887E7364885E721463648D8
:104F300001F0BCF8746079E02146344874E0214601
:104F4000334871E0214633486EE0214632486BE039
:104F50002146324868E02146314865E0E4080020F7
:104F6000C6C600089C010020580000205000002008
:104F70003429002035290020A4280020E1C600089B
:104F8000FEC60008B8C1000819C700083BC70008E2
:104F900057C7000871C700089BC70008C7C70008AB
:104FA000F1C7000819C8000833C800084EC8000837
:104FB00067C8000881C8000898C80008B1C8000880
:104FC000D1C80008EEC8000807C9000830C90008A9
:104FD00042C900085FC9000875C9000889C90008EE
:104FE0009AC90008ACC90008BEC90008D3C90008A6
:104FF000E5C90008FAC9000819CA000838CA00083B
:1050000057CA000876CA000896CA0008AFCA000846
:10501000CCCA0008EBCA000806CB00081DCB00086C
:105020003ACB00082146264801F040F83568254F64
:105030000124002D3DD124483C6000F0ADFA234806
:1050400000F0AAFA29464620FFF786FD6420FFF704
:105050005BFEFFF767FE02211D4801F027F80221E1
:105060000920FFF779FD6420FFF74EFEFFF75AFE97
:105070002946184801F01AF829460720FFF76CFD69
:105080006420FFF741FEFFF74DFEBD681248294638
:1050900001F00CF8A9B20620FFF75EFD6420FFF7CF
:1050A00033FEFFF73FFE0D4800F076FA074800F0A8
:1050B00073FA204601E00020107005B0F0BD00BF7B
:1050C00059CB00089C01002074CB0008B8C100082F
:1050D00095CB0008B7CB0008AAC40008CDCB0008C8
:1050E000054B1A68054B012A18BFB0FBF2F0186097
:1050F0001A68002AFCD1704754000020782900204B
:10510000034B1A6812B11A68013A1A60704700BF5F
:1051100078290020034B986880F40060C0F3C02019
:10512000704700BF0008014030B504460546002026
:105130002B1BDBB299421AD92378C3B115F8013B76
:10514000A3F13002D2B2092A0DD9A3F14102052AF6
:1051500001D8373B04E0A3F16102052A02D8573B8E
:10516000DAB200E0002202EB001398B2E0E730BDB3
:105170001723022903FB01F110B54FF00903D8BF33
:10518000144691FBF3F1D8BF02F1FF324FF0040354
:1051900092FBF3F3C8BF941E204408440430184423
:1051A0006FF0630392FBF3F318444FF4C87392FB60
:1051B000F3F20244072092FBF0F0C0EBC000101A9B
:1051C00010BD0000F0B52B4FC0F30725C4B24FF45B
:1051D000C8766420002A20DD6B1E012D144457F888
:1051E00023300DD18A073BD191FBF0F200FB121264
:1051F00022B991FBF6F206FB12128ABB01332FE0B3
:105200009C422BDD01350C2DA4EB030303F1FF328F
:10521000C4BF013101250124DCE7164F64204FF49F
:10522000C876DAB12244002A20DC013D04BF0C25F7
:1052300001F1FF316B1E012D57F82340F1D18B078F
:10524000EFD191FBF0F300FB13132BB991FBF6F3B5
:1052500006FB1313002BE4D10134E2E7224605E0FC
:10526000A342FBDAE21A013A0225D4E742EA05201A
:10527000F0BD00BFECCC0008F8B5644B05461A68D9
:10528000824200F0C180624C6422186095FBF2F209
:10529000132395FBF4F490FBF3FE5E4914440140A4
:1052A00003FB1E0E261D072095FBF0F796FBF0F082
:1052B000D200C0EBC000361A02F10D00192290FB9B
:1052C000F2F2A21A1E200F3292FBF0F300FB13231E
:1052D000132404FB0E3393FBF0F200FB123300297E
:1052E000BEBF01F1FF3161F003010131C7EBC70718
:1052F0001D2BA5EB070706D01C2B05D1BEF10B0F0C
:10530000A8BF1B2300E01C2303EB430201EB470172
:10531000114406EB4106072196FBF1F1C1EBC101F7
:10532000761A3344163303241F2B02DD1F3B01344E
:10533000FAE743EA042440F20113374E40F61947D6
:1053400073604FF48373B36040F20153F36040F62F
:105350000323336140F61A436FF02F02294620469B
:10536000B3617761FFF72EFF6FF00102F06129460C
:105370002046FFF727FF0022306229462046FFF72C
:1053800021FF0122706229462046FFF71BFF2722DA
:10539000B06229462046FFF715FF3122F062294608
:1053A0002046FFF70FFF3222306329462046FFF7E1
:1053B00009FF3C22706329462046FFF703FF2A4677
:1053C000B0630C211920FFF7D3FE6FF014020446DE
:1053D000121A29463846FFF7F5FE6FF00D02F0630A
:1053E000121B29463846FFF7EDFE6FF006023064C7
:1053F000121B29463846FFF7E5FE624270642946D3
:105400003846FFF7DFFEB064F8BD00BFCC080020CF
:1054100070FEFFFF03000080BC29002030B5124B56
:1054200087B01868E8B1114D0DF1010200233C204E
:105430005C59591902F8014C4C680833B4FBF0F17F
:10544000117000FB1141402B517002F10302EFD1AA
:10545000182269464FF4227005F01AF9003018BF7F
:10546000012007B030BD00BFD8110020FC0700208C
:10547000074A136823B107490B6813F0020301D1EF
:1054800018467047CB6C03800023136001207047DF
:10549000900100200024014010B50B4B0B4C1B6CFD
:1054A0000B4873B1142202FB03F10A4AB2FBF1F27A
:1054B0002260094AD2F8C42053433C22B3FBF2F3E2
:1054C00000E02360036010BD9417002074090020E1
:1054D00068010020A0BB0D002C25002038B5224C0F
:1054E00040F22551204603F087FAB8B14FF6DF733A
:1054F00023801E4BA288196892B2FF290ED81C493E
:105500001C4D0C68D2B2601CFF282A5588BF0022AF
:10551000086088BF0A601A6801321A60124C40F2B3
:105520002771204603F068FAE8B14FF67F73124AFC
:105530002380136893B11149114C0B68581C8028C3
:10554000086008BF0020E35C08BF08601168DBB298
:1055500001391160044A9BB2938038BD094A13682F
:1055600023F08003136038BD00380140F4050020AB
:105570006C09002050060020540B0020A80A0020CF
:10558000C40A00200C380140024A1368002BFCD1E9
:10559000704700BF540B002010B5441E14F8010FD3
:1055A00010B103F073FDF9E710BD00002DE9F84FCD
:1055B0004FF6FE744FF080437E4D1C8203F5863318
:1055C0009A682868002840F051817B4902F008025F
:1055D0000B680E461BBB79481AB903680133036098
:1055E00044E102689AB101220A6075490A6075496E
:1055F0000B6075490B6075490B6075490B60754907
:105600000B60754BFF211960744B1A702EE1744AC0
:105610001368A34200F22A810133136026E1684F28
:10562000D7F800C0BCF1000F4DD06C4C5AB12378B4
:105630000133DBB2E92B237040F2E4805F4B08605A
:1056400018602070DEE05D4A13689046A3F11F01E8
:105650000A2903D82278063A042A1DD9A3F15E024A
:10566000532A07D82278A2F12E012B2916D9173AEE
:10567000162A15D9A3F13C020F2A03D822783C3A06
:105680000F2A0FD9283B162B03D82378133B0C2B5A
:105690000AD90021316008E0524906E0524904E08D
:1056A000524902E0524900E0524933681BB144229A
:1056B000514805F0F8FE484A002313600122C8F85B
:1056C000002023706EE03F4B19681C4600296BD008
:1056D000494B002A47D0404A5F6B116896468F427B
:1056E0000DD19A6B012A0AD1344A59691268914244
:1056F00018D899698A4215D8C3F838C085E0DFF810
:10570000DC80186898F80020012802F10102D2B26A
:1057100088F80020DFF8E0C007D0E92A75D97A1EA2
:1057200091421AD0002333609CE00B2A6AD90A29DF
:10573000F3D9264F4A1CCCF834203A68A1F10B0E5D
:1057400042EA0E223A60DCF82C20114401310A2290
:10575000CCF8301088F8002005E09B6B002BE1D1DD
:10576000CEF8007051E01968234A0329134FDFF87F
:105770006CE040F0A38318480168102940F09E8334
:105780003B68053B072B00F2B3839EF80030A3F182
:105790003C0EBEF10F0F00F285830023236011231E
:1057A000036001233B602DE042BB044A13680133D0
:1057B000136027E080090020980900205C0B00207E
:1057C0006C0B00207C09002084090020B40A002012
:1057D00094090020500B0020600B0020800B00205B
:1057E000B00A002064CC0008DCCB000820CC000804
:1057F000A8CC00081CCD00082409002001221A6052
:10580000964B1A703368002B30D0954B954A5F6BDE
:10581000126897422AD19A6B42BB934C934AD4F8B0
:1058200000E011688E45924940F076839148006807
:10583000B0F5966F80F07083086801301B680860CF
:10584000012B40F06B8309680139012900F2748350
:10585000884B002119602B68002B40F0CC8300237B
:1058600033601360844A13607C4A13702B68834D45
:105870002B68012B0CD940F6A661814A13680133CD
:105880008B42136004D17F4B012119600023136008
:105890007D4A13680133EA2B136004D17B4B01214D
:1058A0001960002313607A4B1B68002B00F0CF8136
:1058B000784A13680133962B136040F0C8810020AA
:1058C0001060754A11681446FF290CD173490B68A2
:1058D000642B05BF724B4FF400710133596114BF43
:1058E0000B601060B3E16E4B6E4A9B684FF4005042
:1058F00013F4807340F00D83106101296A4A08D0C7
:1059000003D30229694E16D02CE0012121601360D7
:105910009DE111688B4200F09A81002B1360644B6B
:105920004FF0FF021A60614B0CBF022103210022DD
:1059300021601A608BE111688B4202D13368013318
:105940000EE0136033680321782B216003D9584B94
:1059500000221A6003E04A2B01D8002323600023B1
:10596000336074E111688B42E8D013603368022120
:105970009A1F122A21604E4F0BD9052B94BF4D4818
:105980004D48FFF709FE4D48FFF706FE0023236050
:1059900014E10F2B3B6840F2FD80113B292B00F2F4
:1059A0000D81DFE813F02A000B010B010B012E0023
:1059B00032003B003F00430047004B004F005600C1
:1059C00097009B009F00A300A700AD00B300B500A7
:1059D000B700B900BB00BD00BF00C300C700CB00CB
:1059E000CD00CF00D100D300D500D700D900DB0017
:1059F000DF00E300E700EB00F100314B01221A6009
:105A0000DCE0304A1368013302E02E4A13680233A7
:105A100013602D4A136801331360CFE0294A1368DD
:105A20000433F5E7274A13680833F1E7254A13687A
:105A30000A33EDE7234A13681433E9E7214A136870
:105A40002833E5E7204B1B68DA0700F1B7801F48D1
:105A500097E71F4A136801334FE000BF800B002017
:105A600024090020600B0020700000208409002021
:105A700088090020B00A00205C0B002050010020A3
:105A80008C09002060070020900900203C060020BF
:105A9000A0280020580B0020680000201C090020CE
:105AA000000C0140001001409C090020680B002000
:105AB0006400002060CD00087DCD0008B8C100085A
:105AC000A40A0020F80500204C0B00209BCD000804
:105AD000DC050020914A136802330EE08F4A1368F8
